{
  "_format": "hh-sol-artifact-1",
  "contractName": "HelloWorld",
  "sourceName": "contracts/HelloWorld.sol",
  "abi": [
    {
      "inputs": [
        {
          "internalType": "uint256",
          "name": "x",
          "type": "uint256"
        },
        {
          "internalType": "bytes32",
          "name": "oper",
          "type": "bytes32"
        },
        {
          "internalType": "uint256",
          "name": "y",
          "type": "uint256"
        }
      ],
      "name": "calculate",
      "outputs": [
        {
          "internalType": "uint256",
          "name": "",
          "type": "uint256"
        }
      ],
      "stateMutability": "pure",
      "type": "function"
    },
    {
      "inputs": [
        {
          "internalType": "uint256",
          "name": "n",
          "type": "uint256"
        }
      ],
      "name": "getFactorial",
      "outputs": [
        {
          "internalType": "uint256",
          "name": "",
          "type": "uint256"
        }
      ],
      "stateMutability": "pure",
      "type": "function"
    },
    {
      "inputs": [],
      "name": "sayHello",
      "outputs": [
        {
          "internalType": "string",
          "name": "",
          "type": "string"
        }
      ],
      "stateMutability": "pure",
      "type": "function"
    }
  ],
  "bytecode": "0x608060405234801561001057600080fd5b50610603806100206000396000f3fe608060405234801561001057600080fd5b50600436106100415760003560e01c80632860fc17146100465780638235841414610076578063ef5fb05b146100a6575b600080fd5b610060600480360381019061005b91906102ac565b6100c4565b60405161006d919061030e565b60405180910390f35b610090600480360381019061008b9190610329565b6101be565b60405161009d919061030e565b60405180910390f35b6100ae6101fe565b6040516100bb91906103ef565b60405180910390f35b60007f2b000000000000000000000000000000000000000000000000000000000000008314156101015781846100fa9190610440565b90506101b7565b7f2d0000000000000000000000000000000000000000000000000000000000000083141561013c5781846101359190610496565b90506101b7565b7f2a0000000000000000000000000000000000000000000000000000000000000083141561017757818461017091906104ca565b90506101b7565b7f2f000000000000000000000000000000000000000000000000000000000000008314156101b25781846101ab9190610553565b90506101b7565b600090505b9392505050565b600080600190506000600190505b8381116101f45780826101df91906104ca565b915080806101ec90610584565b9150506101cc565b5080915050919050565b60606040518060400160405280600f81526020017f48656c6c6f20576f726c64212121210000000000000000000000000000000000815250905090565b600080fd5b6000819050919050565b61025381610240565b811461025e57600080fd5b50565b6000813590506102708161024a565b92915050565b6000819050919050565b61028981610276565b811461029457600080fd5b50565b6000813590506102a681610280565b92915050565b6000806000606084860312156102c5576102c461023b565b5b60006102d386828701610261565b93505060206102e486828701610297565b92505060406102f586828701610261565b9150509250925092565b61030881610240565b82525050565b600060208201905061032360008301846102ff565b92915050565b60006020828403121561033f5761033e61023b565b5b600061034d84828501610261565b91505092915050565b600081519050919050565b600082825260208201905092915050565b60005b83811015610390578082015181840152602081019050610375565b8381111561039f576000848401525b50505050565b6000601f19601f8301169050919050565b60006103c182610356565b6103cb8185610361565b93506103db818560208601610372565b6103e4816103a5565b840191505092915050565b6000602082019050818103600083015261040981846103b6565b905092915050565b7f4e487b7100000000000000000000000000000000000000000000000000000000600052601160045260246000fd5b600061044b82610240565b915061045683610240565b9250827fffffffffffffffffffffffffffffffffffffffffffffffffffffffffffffffff0382111561048b5761048a610411565b5b828201905092915050565b60006104a182610240565b91506104ac83610240565b9250828210156104bf576104be610411565b5b828203905092915050565b60006104d582610240565b91506104e083610240565b9250817fffffffffffffffffffffffffffffffffffffffffffffffffffffffffffffffff048311821515161561051957610518610411565b5b828202905092915050565b7f4e487b7100000000000000000000000000000000000000000000000000000000600052601260045260246000fd5b600061055e82610240565b915061056983610240565b92508261057957610578610524565b5b828204905092915050565b600061058f82610240565b91507fffffffffffffffffffffffffffffffffffffffffffffffffffffffffffffffff8214156105c2576105c1610411565b5b60018201905091905056fea2646970667358221220e887326e601b40d29fa81dfec6f48ac6b3e6f638bb18f540ff57803275b1b10964736f6c63430008090033",
  "linkReferences": {},
  "deployedLinkReferences": {}
}