{
  "_format": "hh-sol-artifact-1",
  "contractName": "HelloWorld",
  "sourceName": "contracts/HelloWorld.sol",
  "abi": [
    {
      "inputs": [
        {
          "internalType": "uint256",
          "name": "x",
          "type": "uint256"
        },
        {
          "internalType": "bytes32",
          "name": "oper",
          "type": "bytes32"
        },
        {
          "internalType": "uint256",
          "name": "y",
          "type": "uint256"
        }
      ],
      "name": "calculate",
      "outputs": [
        {
          "internalType": "uint256",
          "name": "",
          "type": "uint256"
        }
      ],
      "stateMutability": "pure",
      "type": "function"
    },
    {
      "inputs": [
        {
          "internalType": "uint256",
          "name": "n",
          "type": "uint256"
        }
      ],
      "name": "getFactorial",
      "outputs": [
        {
          "internalType": "uint256",
          "name": "",
          "type": "uint256"
        }
      ],
      "stateMutability": "pure",
      "type": "function"
    },
    {
      "inputs": [],
      "name": "sayHello",
      "outputs": [
        {
          "internalType": "string",
          "name": "",
          "type": "string"
        }
      ],
      "stateMutability": "pure",
      "type": "function"
    }
  ],
  "bytecode": "0x608060405234801561001057600080fd5b506102e2806100206000396000f3fe608060405234801561001057600080fd5b50600436106100415760003560e01c80632860fc1714610046578063823584141461009c578063ef5fb05b146100de575b600080fd5b6100866004803603606081101561005c57600080fd5b81019080803590602001909291908035906020019092919080359060200190929190505050610161565b6040518082815260200191505060405180910390f35b6100c8600480360360208110156100b257600080fd5b810190808035906020019092919050505061023e565b6040518082815260200191505060405180910390f35b6100e661026f565b6040518080602001828103825283818151815260200191508051906020019080838360005b8381101561012657808201518184015260208101905061010b565b50505050905090810190601f1680156101535780820380516001836020036101000a031916815260200191505b509250505060405180910390f35b60007f2b00000000000000000000000000000000000000000000000000000000000000831415610195578184019050610237565b7f2d000000000000000000000000000000000000000000000000000000000000008314156101c7578184039050610237565b7f2a000000000000000000000000000000000000000000000000000000000000008314156101f9578184029050610237565b7f2f000000000000000000000000000000000000000000000000000000000000008314156102325781848161022a57fe5b049050610237565b600090505b9392505050565b600080600190506000600190505b838111610265578082029150808060010191505061024c565b5080915050919050565b60606040518060400160405280600f81526020017f48656c6c6f20576f726c6421212121000000000000000000000000000000000081525090509056fea26469706673582212203648958d1d796082189eafc7468b00243433475b64974dd89209a5d23a45154564736f6c63430007030033",
  "linkReferences": {},
  "deployedLinkReferences": {}
}