{
  "_format": "hh-sol-artifact-1",
  "contractName": "Charity",
  "sourceName": "contracts/Charity.sol",
  "abi": [
    {
      "inputs": [],
      "stateMutability": "nonpayable",
      "type": "constructor"
    },
    {
      "anonymous": false,
      "inputs": [
        {
          "indexed": true,
          "internalType": "address",
          "name": "_donator",
          "type": "address"
        },
        {
          "indexed": false,
          "internalType": "uint256",
          "name": "_value",
          "type": "uint256"
        }
      ],
      "name": "DonationMaked",
      "type": "event"
    },
    {
      "anonymous": false,
      "inputs": [
        {
          "indexed": true,
          "internalType": "address",
          "name": "previousOwner",
          "type": "address"
        },
        {
          "indexed": true,
          "internalType": "address",
          "name": "newOwner",
          "type": "address"
        }
      ],
      "name": "OwnershipTransferred",
      "type": "event"
    },
    {
      "anonymous": false,
      "inputs": [
        {
          "indexed": true,
          "internalType": "address",
          "name": "_administrator",
          "type": "address"
        },
        {
          "indexed": true,
          "internalType": "address",
          "name": "_beneficiary",
          "type": "address"
        },
        {
          "indexed": false,
          "internalType": "uint256",
          "name": "_value",
          "type": "uint256"
        }
      ],
      "name": "WithdrawalMaked",
      "type": "event"
    },
    {
      "inputs": [],
      "name": "getAmountDonations",
      "outputs": [
        {
          "internalType": "uint256",
          "name": "",
          "type": "uint256"
        }
      ],
      "stateMutability": "view",
      "type": "function"
    },
    {
      "inputs": [],
      "name": "getAmountDonators",
      "outputs": [
        {
          "internalType": "uint256",
          "name": "",
          "type": "uint256"
        }
      ],
      "stateMutability": "view",
      "type": "function"
    },
    {
      "inputs": [
        {
          "internalType": "address",
          "name": "donator",
          "type": "address"
        }
      ],
      "name": "getDonationsSumOfDonator",
      "outputs": [
        {
          "internalType": "uint256",
          "name": "",
          "type": "uint256"
        }
      ],
      "stateMutability": "view",
      "type": "function"
    },
    {
      "inputs": [],
      "name": "makeDonation",
      "outputs": [],
      "stateMutability": "payable",
      "type": "function"
    },
    {
      "inputs": [],
      "name": "owner",
      "outputs": [
        {
          "internalType": "address",
          "name": "",
          "type": "address"
        }
      ],
      "stateMutability": "view",
      "type": "function"
    },
    {
      "inputs": [],
      "name": "renounceOwnership",
      "outputs": [],
      "stateMutability": "nonpayable",
      "type": "function"
    },
    {
      "inputs": [
        {
          "internalType": "address",
          "name": "newOwner",
          "type": "address"
        }
      ],
      "name": "transferOwnership",
      "outputs": [],
      "stateMutability": "nonpayable",
      "type": "function"
    },
    {
      "inputs": [
        {
          "internalType": "address payable",
          "name": "beneficiary",
          "type": "address"
        }
      ],
      "name": "transferToBeneficiary",
      "outputs": [],
      "stateMutability": "payable",
      "type": "function"
    }
  ],
  "bytecode": "0x608060405234801561001057600080fd5b5061002d61002261007360201b60201c565b61007b60201b60201c565b33600160006101000a81548173ffffffffffffffffffffffffffffffffffffffff021916908373ffffffffffffffffffffffffffffffffffffffff16021790555061013f565b600033905090565b60008060009054906101000a900473ffffffffffffffffffffffffffffffffffffffff169050816000806101000a81548173ffffffffffffffffffffffffffffffffffffffff021916908373ffffffffffffffffffffffffffffffffffffffff1602179055508173ffffffffffffffffffffffffffffffffffffffff168173ffffffffffffffffffffffffffffffffffffffff167f8be0079c531659141344cd1fd0a4f28419497f9722a3daafe3b4186f6b6457e060405160405180910390a35050565b610e768061014e6000396000f3fe60806040526004361061007b5760003560e01c8063847a0ec21161004e578063847a0ec2146100e85780638da5cb5b14610113578063de50f2a01461013e578063f2fde38b1461017b5761007b565b806313da0b4d1461008057806321b98fdf146100ab57806340ea0a94146100c7578063715018a6146100d1575b600080fd5b34801561008c57600080fd5b506100956101a4565b6040516100a29190610985565b60405180910390f35b6100c560048036038101906100c09190610a03565b6101f2565b005b6100cf610379565b005b3480156100dd57600080fd5b506100e6610498565b005b3480156100f457600080fd5b506100fd610520565b60405161010a9190610985565b60405180910390f35b34801561011f57600080fd5b5061012861056e565b6040516101359190610a51565b60405180910390f35b34801561014a57600080fd5b5061016560048036038101906101609190610a98565b610597565b6040516101729190610985565b60405180910390f35b34801561018757600080fd5b506101a2600480360381019061019d9190610a98565b6106b6565b005b600080600354116101ea576040517f08c379a00000000000000000000000000000000000000000000000000000000081526004016101e190610b22565b60405180910390fd5b600354905090565b6101fa6107ae565b73ffffffffffffffffffffffffffffffffffffffff1661021861056e565b73ffffffffffffffffffffffffffffffffffffffff161461026e576040517f08c379a000000000000000000000000000000000000000000000000000000000815260040161026590610b8e565b60405180910390fd5b600034116102b1576040517f08c379a00000000000000000000000000000000000000000000000000000000081526004016102a890610c20565b60405180910390fd5b8073ffffffffffffffffffffffffffffffffffffffff166108fc349081150290604051600060405180830381858888f193505050501580156102f7573d6000803e3d6000fd5b508073ffffffffffffffffffffffffffffffffffffffff163373ffffffffffffffffffffffffffffffffffffffff167f7374bd73f4cea160220ff9464f99a6714ce89d1c5460e2dba4766eb831cd220c346040516103559190610985565b60405180910390a3346002600082825461036f9190610c6f565b9250508190555050565b600034116103bc576040517f08c379a00000000000000000000000000000000000000000000000000000000081526004016103b390610c20565b60405180910390fd5b600160009054906101000a900473ffffffffffffffffffffffffffffffffffffffff1673ffffffffffffffffffffffffffffffffffffffff166108fc349081150290604051600060405180830381858888f19350505050158015610424573d6000803e3d6000fd5b503373ffffffffffffffffffffffffffffffffffffffff167fbc166fed233791480f4c80d9ca92e09a55835ba05d4d014cb0a2f1250be5a1a13460405161046b9190610985565b60405180910390a234600260008282546104859190610ca3565b9250508190555061049633346107b6565b565b6104a06107ae565b73ffffffffffffffffffffffffffffffffffffffff166104be61056e565b73ffffffffffffffffffffffffffffffffffffffff1614610514576040517f08c379a000000000000000000000000000000000000000000000000000000000815260040161050b90610b8e565b60405180910390fd5b61051e60006108a8565b565b60008060035411610566576040517f08c379a000000000000000000000000000000000000000000000000000000000815260040161055d90610b22565b60405180910390fd5b600254905090565b60008060009054906101000a900473ffffffffffffffffffffffffffffffffffffffff16905090565b600080600354116105dd576040517f08c379a00000000000000000000000000000000000000000000000000000000081526004016105d490610b22565b60405180910390fd5b600460008373ffffffffffffffffffffffffffffffffffffffff1673ffffffffffffffffffffffffffffffffffffffff16815260200190815260200160002060020160009054906101000a900460ff1661066c576040517f08c379a000000000000000000000000000000000000000000000000000000000815260040161066390610d45565b60405180910390fd5b600460008373ffffffffffffffffffffffffffffffffffffffff1673ffffffffffffffffffffffffffffffffffffffff168152602001908152602001600020600101549050919050565b6106be6107ae565b73ffffffffffffffffffffffffffffffffffffffff166106dc61056e565b73ffffffffffffffffffffffffffffffffffffffff1614610732576040517f08c379a000000000000000000000000000000000000000000000000000000000815260040161072990610b8e565b60405180910390fd5b600073ffffffffffffffffffffffffffffffffffffffff168173ffffffffffffffffffffffffffffffffffffffff1614156107a2576040517f08c379a000000000000000000000000000000000000000000000000000000000815260040161079990610dd7565b60405180910390fd5b6107ab816108a8565b50565b600033905090565b6000600460008473ffffffffffffffffffffffffffffffffffffffff1673ffffffffffffffffffffffffffffffffffffffff16815260200190815260200160002090508060020160009054906101000a900460ff16610888576003600081548092919061082290610df7565b9190505550828160000160006101000a81548173ffffffffffffffffffffffffffffffffffffffff021916908373ffffffffffffffffffffffffffffffffffffffff16021790555060018160020160006101000a81548160ff0219169083151502179055505b8181600101600082825461089c9190610ca3565b92505081905550505050565b60008060009054906101000a900473ffffffffffffffffffffffffffffffffffffffff169050816000806101000a81548173ffffffffffffffffffffffffffffffffffffffff021916908373ffffffffffffffffffffffffffffffffffffffff1602179055508173ffffffffffffffffffffffffffffffffffffffff168173ffffffffffffffffffffffffffffffffffffffff167f8be0079c531659141344cd1fd0a4f28419497f9722a3daafe3b4186f6b6457e060405160405180910390a35050565b6000819050919050565b61097f8161096c565b82525050565b600060208201905061099a6000830184610976565b92915050565b600080fd5b600073ffffffffffffffffffffffffffffffffffffffff82169050919050565b60006109d0826109a5565b9050919050565b6109e0816109c5565b81146109eb57600080fd5b50565b6000813590506109fd816109d7565b92915050565b600060208284031215610a1957610a186109a0565b5b6000610a27848285016109ee565b91505092915050565b6000610a3b826109a5565b9050919050565b610a4b81610a30565b82525050565b6000602082019050610a666000830184610a42565b92915050565b610a7581610a30565b8114610a8057600080fd5b50565b600081359050610a9281610a6c565b92915050565b600060208284031215610aae57610aad6109a0565b5b6000610abc84828501610a83565b91505092915050565b600082825260208201905092915050565b7f4e6f20646f6e61746f72732e0000000000000000000000000000000000000000600082015250565b6000610b0c600c83610ac5565b9150610b1782610ad6565b602082019050919050565b60006020820190508181036000830152610b3b81610aff565b9050919050565b7f4f776e61626c653a2063616c6c6572206973206e6f7420746865206f776e6572600082015250565b6000610b78602083610ac5565b9150610b8382610b42565b602082019050919050565b60006020820190508181036000830152610ba781610b6b565b9050919050565b7f5472616e7366657220616d6f756e74207765692068617320746f20626520677260008201527f6561746572207468616e20302e00000000000000000000000000000000000000602082015250565b6000610c0a602d83610ac5565b9150610c1582610bae565b604082019050919050565b60006020820190508181036000830152610c3981610bfd565b9050919050565b7f4e487b7100000000000000000000000000000000000000000000000000000000600052601160045260246000fd5b6000610c7a8261096c565b9150610c858361096c565b925082821015610c9857610c97610c40565b5b828203905092915050565b6000610cae8261096c565b9150610cb98361096c565b9250827fffffffffffffffffffffffffffffffffffffffffffffffffffffffffffffffff03821115610cee57610ced610c40565b5b828201905092915050565b7f446f6e61746f72206e6f74206578697374000000000000000000000000000000600082015250565b6000610d2f601183610ac5565b9150610d3a82610cf9565b602082019050919050565b60006020820190508181036000830152610d5e81610d22565b9050919050565b7f4f776e61626c653a206e6577206f776e657220697320746865207a65726f206160008201527f6464726573730000000000000000000000000000000000000000000000000000602082015250565b6000610dc1602683610ac5565b9150610dcc82610d65565b604082019050919050565b60006020820190508181036000830152610df081610db4565b9050919050565b6000610e028261096c565b91507fffffffffffffffffffffffffffffffffffffffffffffffffffffffffffffffff821415610e3557610e34610c40565b5b60018201905091905056fea2646970667358221220cb277300cde2ff2382ee09345762044757334d7fd2cb5af4de65fd5c381e341c64736f6c63430008090033",
  "linkReferences": {},
  "deployedLinkReferences": {}
}